{
  "_format": "hh-sol-artifact-1",
  "contractName": "LinkRegistryWithDeals",
  "sourceName": "contracts/filefind/LinkRegistryWithDeals.sol",
  "abi": [
    {
      "inputs": [
        {
          "internalType": "address",
          "name": "dealClientAddr",
          "type": "address"
        }
      ],
      "stateMutability": "nonpayable",
      "type": "constructor"
    },
    {
      "anonymous": false,
      "inputs": [
        {
          "indexed": false,
          "internalType": "string",
          "name": "url",
          "type": "string"
        },
        {
          "indexed": false,
          "internalType": "string",
          "name": "dmcaCID",
          "type": "string"
        },
        {
          "indexed": false,
          "internalType": "bytes32",
          "name": "dmcaDealId",
          "type": "bytes32"
        }
      ],
      "name": "DMCAFiled",
      "type": "event"
    },
    {
      "anonymous": false,
      "inputs": [
        {
          "indexed": false,
          "internalType": "string",
          "name": "url",
          "type": "string"
        },
        {
          "indexed": false,
          "internalType": "string",
          "name": "licenseCID",
          "type": "string"
        },
        {
          "indexed": false,
          "internalType": "bytes32",
          "name": "licenseDealId",
          "type": "bytes32"
        }
      ],
      "name": "LinkAdded",
      "type": "event"
    },
    {
      "inputs": [
        {
          "internalType": "string",
          "name": "url",
          "type": "string"
        },
        {
          "internalType": "string",
          "name": "licenseCID",
          "type": "string"
        },
        {
          "internalType": "uint64",
          "name": "size",
          "type": "uint64"
        }
      ],
      "name": "addLinkWithDeal",
      "outputs": [],
      "stateMutability": "nonpayable",
      "type": "function"
    },
    {
      "inputs": [
        {
          "internalType": "uint256",
          "name": "",
          "type": "uint256"
        }
      ],
      "name": "allLinks",
      "outputs": [
        {
          "internalType": "string",
          "name": "",
          "type": "string"
        }
      ],
      "stateMutability": "view",
      "type": "function"
    },
    {
      "inputs": [],
      "name": "dealClient",
      "outputs": [
        {
          "internalType": "contract DealClient",
          "name": "",
          "type": "address"
        }
      ],
      "stateMutability": "view",
      "type": "function"
    },
    {
      "inputs": [
        {
          "internalType": "string",
          "name": "url",
          "type": "string"
        },
        {
          "internalType": "string",
          "name": "dmcaCID",
          "type": "string"
        },
        {
          "internalType": "uint64",
          "name": "size",
          "type": "uint64"
        }
      ],
      "name": "fileDMCAWithDeal",
      "outputs": [],
      "stateMutability": "nonpayable",
      "type": "function"
    },
    {
      "inputs": [],
      "name": "getLinkCount",
      "outputs": [
        {
          "internalType": "uint256",
          "name": "",
          "type": "uint256"
        }
      ],
      "stateMutability": "view",
      "type": "function"
    },
    {
      "inputs": [
        {
          "internalType": "string",
          "name": "",
          "type": "string"
        }
      ],
      "name": "linkRecords",
      "outputs": [
        {
          "internalType": "string",
          "name": "url",
          "type": "string"
        },
        {
          "internalType": "string",
          "name": "licenseCID",
          "type": "string"
        },
        {
          "internalType": "string",
          "name": "dmcaCID",
          "type": "string"
        },
        {
          "internalType": "enum LinkRegistryWithDeals.Status",
          "name": "status",
          "type": "uint8"
        },
        {
          "internalType": "uint256",
          "name": "timestamp",
          "type": "uint256"
        },
        {
          "internalType": "bool",
          "name": "exists",
          "type": "bool"
        },
        {
          "internalType": "bytes32",
          "name": "dealProposalLicense",
          "type": "bytes32"
        },
        {
          "internalType": "bytes32",
          "name": "dealProposalDMCA",
          "type": "bytes32"
        }
      ],
      "stateMutability": "view",
      "type": "function"
    },
    {
      "inputs": [],
      "name": "owner",
      "outputs": [
        {
          "internalType": "address",
          "name": "",
          "type": "address"
        }
      ],
      "stateMutability": "view",
      "type": "function"
    }
  ],
  "bytecode": "0x60806040523480156200001157600080fd5b50604051620014a7380380620014a78339810160408190526200003491620000a2565b60028054336001600160a01b031991821617909155600380549091166001600160a01b0392909216919091179055620000cf565b60006001600160a01b0382165b92915050565b620000868162000068565b81146200009257600080fd5b50565b805162000075816200007b565b600060208284031215620000b957620000b9600080fd5b6000620000c7848462000095565b949350505050565b6113c880620000df6000396000f3fe608060405234801561001057600080fd5b506004361061007d5760003560e01c8063ae268dd61161005b578063ae268dd6146100f2578063bd829f3614610112578063eb19ac7714610127578063ef51b79d1461013a57600080fd5b8063062b91da146100825780632df9b1c2146100b25780638da5cb5b146100d2575b600080fd5b610095610090366004610b37565b61014a565b6040516100a9989796959493929190610c2b565b60405180910390f35b6003546100c5906001600160a01b031681565b6040516100a99190610cf7565b6002546100e5906001600160a01b031681565b6040516100a99190610d1f565b610105610100366004610d45565b610334565b6040516100a99190610d66565b610125610120366004610deb565b6103e0565b005b610125610135366004610deb565b610799565b6001546040516100a99190610e7a565b805160208183018101805160008252928201919093012091528054819061017090610e9e565b80601f016020809104026020016040519081016040528092919081815260200182805461019c90610e9e565b80156101e95780601f106101be576101008083540402835291602001916101e9565b820191906000526020600020905b8154815290600101906020018083116101cc57829003601f168201915b5050505050908060010180546101fe90610e9e565b80601f016020809104026020016040519081016040528092919081815260200182805461022a90610e9e565b80156102775780601f1061024c57610100808354040283529160200191610277565b820191906000526020600020905b81548152906001019060200180831161025a57829003601f168201915b50505050509080600201805461028c90610e9e565b80601f01602080910402602001604051908101604052809291908181526020018280546102b890610e9e565b80156103055780601f106102da57610100808354040283529160200191610305565b820191906000526020600020905b8154815290600101906020018083116102e857829003601f168201915b5050506003840154600485015460058601546006870154600790970154959660ff938416969295509216925088565b6001818154811061034457600080fd5b90600052602060002001600091509050805461035f90610e9e565b80601f016020809104026020016040519081016040528092919081815260200182805461038b90610e9e565b80156103d85780601f106103ad576101008083540402835291602001916103d8565b820191906000526020600020905b8154815290600101906020018083116103bb57829003601f168201915b505050505081565b6002546001600160a01b031633146104135760405162461bcd60e51b815260040161040a90610f01565b60405180910390fd5b60008585604051610425929190610f24565b9081526040519081900360200190206005015460ff16156104585760405162461bcd60e51b815260040161040a90610f65565b600083838080601f0160208091040260200160405190810160405280939291908181526020018383808284376000920182905250604080516101208101825286815267ffffffffffffffff89166020808301919091528183018490528251601f8e018290048202810182019093528c8352969750919591945060608501935091508a908a9081908401838280828437600092019190915250505090825250602001610504426064610f8b565b60070b815260200161051942620f4240610f8b565b60070b815260006020820181905260408083018290526060909201819052600354915163e0a9a72560e01b8152929350916001600160a01b039091169063e0a9a7259061056a908590600401611085565b6020604051808303816000875af1158015610589573d6000803e3d6000fd5b505050506040513d601f19601f820116820180604052508101906105ad91906110a1565b604080516101206020601f8c01819004028201810190925261010081018a81529293509182918b908b9081908501838280828437600092019190915250505090825250604080516020601f8a01819004810282018101909252888152918101919089908990819084018382808284376000920182905250938552505060408051602080820183528482528501528084018390524260608501526001608085015260a0840186905260c090930182905250905161066c908b908b90610f24565b908152604051908190036020019020815181906106899082611163565b506020820151600182019061069e9082611163565b50604082015160028201906106b39082611163565b50606082015160038201805460ff1916600183818111156106d6576106d6610bca565b02179055506080820151600482015560a082015160058201805460ff191691151591909117905560c0820151600682015560e0909101516007909101556001805480820182556000919091527fb10e2d527612073b26eecdfd717e6a320cf44b4afac2b0732d9fcbe2b7fa0cf60161074f888a83611227565b507fdb7db618db550d29f0ea7cf831cebd77aedf984b81767719578135c2c8185d91888888888560405161078795949392919061130e565b60405180910390a15050505050505050565b6002546001600160a01b031633146107c35760405162461bcd60e51b815260040161040a90610f01565b600085856040516107d5929190610f24565b9081526040519081900360200190206005015460ff166108075760405162461bcd60e51b815260040161040a90611382565b600083838080601f0160208091040260200160405190810160405280939291908181526020018383808284376000920182905250604080516101208101825286815267ffffffffffffffff89166020808301919091528183018490528251601f8e018290048202810182019093528c8352969750919591945060608501935091508a908a90819084018382808284376000920191909152505050908252506020016108b3426064610f8b565b60070b81526020016108c842620f4240610f8b565b60070b815260006020820181905260408083018290526060909201819052600354915163e0a9a72560e01b8152929350916001600160a01b039091169063e0a9a72590610919908590600401611085565b6020604051808303816000875af1158015610938573d6000803e3d6000fd5b505050506040513d601f19601f8201168201806040525081019061095c91906110a1565b9050858560008a8a604051610972929190610f24565b90815260200160405180910390206002019182610990929190611227565b506001600089896040516109a5929190610f24565b908152604051908190036020019020600301805460ff1916600183818111156109d0576109d0610bca565b021790555080600089896040516109e8929190610f24565b9081526020016040518091039020600701819055507f867069e6cbdf71b85befe0ae4bb182842c936abe4be3919fcaca2f4e066d780a888888888560405161078795949392919061130e565b634e487b7160e01b600052604160045260246000fd5b601f19601f830116810181811067ffffffffffffffff82111715610a7057610a70610a34565b6040525050565b6000610a8260405190565b9050610a8e8282610a4a565b919050565b600067ffffffffffffffff821115610aad57610aad610a34565b601f19601f83011660200192915050565b82818337506000910152565b6000610add610ad884610a93565b610a77565b905082815260208101848484011115610af857610af8600080fd5b610b03848285610abe565b509392505050565b600082601f830112610b1f57610b1f600080fd5b8135610b2f848260208601610aca565b949350505050565b600060208284031215610b4c57610b4c600080fd5b813567ffffffffffffffff811115610b6657610b66600080fd5b610b2f84828501610b0b565b60005b83811015610b8d578181015183820152602001610b75565b50506000910152565b6000610ba0825190565b808452602084019350610bb7818560208601610b72565b601f19601f8201165b9093019392505050565b634e487b7160e01b600052602160045260246000fd5b60028110610bf057610bf0610bca565b50565b80610a8e81610be0565b6000610c0882610bf3565b92915050565b610c1781610bfd565b82525050565b80610c17565b801515610c17565b6101008082528101610c3d818b610b96565b90508181036020830152610c51818a610b96565b90508181036040830152610c658189610b96565b9050610c746060830188610c0e565b610c816080830187610c1d565b610c8e60a0830186610c23565b610c9b60c0830185610c1d565b610ca860e0830184610c1d565b9998505050505050505050565b6000610c086001600160a01b038316610ccc565b90565b6001600160a01b031690565b6000610c0882610cb5565b6000610c0882610cd8565b610c1781610ce3565b60208101610c088284610cee565b60006001600160a01b038216610c08565b610c1781610d05565b60208101610c088284610d16565b805b8114610bf057600080fd5b8035610c0881610d2d565b600060208284031215610d5a57610d5a600080fd5b6000610b2f8484610d3a565b60208082528101610d778184610b96565b9392505050565b60008083601f840112610d9357610d93600080fd5b50813567ffffffffffffffff811115610dae57610dae600080fd5b602083019150836001820283011115610dc957610dc9600080fd5b9250929050565b67ffffffffffffffff8116610d2f565b8035610c0881610dd0565b600080600080600060608688031215610e0657610e06600080fd5b853567ffffffffffffffff811115610e2057610e20600080fd5b610e2c88828901610d7e565b9550955050602086013567ffffffffffffffff811115610e4e57610e4e600080fd5b610e5a88828901610d7e565b93509350506040610e6d88828901610de0565b9150509295509295909350565b60208101610c088284610c1d565b634e487b7160e01b600052602260045260246000fd5b600281046001821680610eb257607f821691505b602082108103610ec457610ec4610e88565b50919050565b600e81526000602082017f4e6f7420617574686f72697a6564000000000000000000000000000000000000815291505b5060200190565b60208082528101610c0881610eca565b6000610f1e838584610abe565b50500190565b6000610b2f828486610f11565b601381526000602082017f4c696e6b20616c7265616479206578697374730000000000000000000000000081529150610efa565b60208082528101610c0881610f31565b634e487b7160e01b600052601160045260246000fd5b67ffffffffffffffff918216919081169082820190811115610c0857610c08610f75565b67ffffffffffffffff8116610c17565b610c178160070b90565b805161012080845260009190840190610fe28282610b96565b9150506020830151610ff76020860182610faf565b50604083015161100a6040860182610c23565b50606083015184820360608601526110228282610b96565b91505060808301516110376080860182610fbf565b5060a083015161104a60a0860182610fbf565b5060c083015161105d60c0860182610c1d565b5060e083015161107060e0860182610c1d565b50610100830151610b03610100860182610c1d565b60208082528101610d778184610fc9565b8051610c0881610d2d565b6000602082840312156110b6576110b6600080fd5b6000610b2f8484611096565b6000610c08610cc98381565b6110d7836110c2565b815460001960089490940293841b1916921b91909117905550565b60006110ff8184846110ce565b505050565b8181101561111f576111176000826110f2565b600101611104565b5050565b601f8211156110ff576000818152602090206020601f8501048101602085101561114a5750805b61115c6020601f860104830182611104565b5050505050565b815167ffffffffffffffff81111561117d5761117d610a34565b6111878254610e9e565b611192828285611123565b6020601f8311600181146111c657600084156111ae5750858201515b600019600886021c198116600286021786555061121f565b600085815260208120601f198616915b828110156111f657888501518255602094850194600190920191016111d6565b868310156112125784890151600019601f89166008021c191682555b6001600288020188555050505b505050505050565b8267ffffffffffffffff81111561124057611240610a34565b61124a8254610e9e565b611255828285611123565b6000601f83116001811461128957600084156112715750858201355b600019600886021c19811660028602178655506112e2565b600085815260208120601f198616915b828110156112b95788850135825560209485019460019092019101611299565b868310156112d557600019601f88166008021c19858a01351682555b6001600288020188555050505b50505050505050565b8183526000602084019350611301838584610abe565b601f19601f840116610bc0565b606080825281016113208187896112eb565b905081810360208301526113358185876112eb565b90506113446040830184610c1d565b9695505050505050565b601381526000602082017f4c696e6b20646f6573206e6f742065786973740000000000000000000000000081529150610efa565b60208082528101610c088161134e56fea26469706673582212202748265ab71b5cca14ce9ea91d3d77ebfef449506c9e359bd3bf07c5ec36c5a364736f6c63430008170033",
  "linkReferences": {},
  "deployedLinkReferences": {}
}