{
  "_format": "hh-sol-artifact-1",
  "contractName": "InfringementBounty",
  "sourceName": "contracts/filefind/InfringementBounty.sol",
  "abi": [
    {
      "inputs": [
        {
          "internalType": "address",
          "name": "registryAddr",
          "type": "address"
        }
      ],
      "stateMutability": "nonpayable",
      "type": "constructor"
    },
    {
      "anonymous": false,
      "inputs": [
        {
          "indexed": true,
          "internalType": "address",
          "name": "reporter",
          "type": "address"
        },
        {
          "indexed": false,
          "internalType": "string",
          "name": "url",
          "type": "string"
        },
        {
          "indexed": false,
          "internalType": "uint256",
          "name": "amount",
          "type": "uint256"
        }
      ],
      "name": "BountyPaid",
      "type": "event"
    },
    {
      "inputs": [],
      "name": "owner",
      "outputs": [
        {
          "internalType": "address",
          "name": "",
          "type": "address"
        }
      ],
      "stateMutability": "view",
      "type": "function"
    },
    {
      "inputs": [],
      "name": "registry",
      "outputs": [
        {
          "internalType": "contract LinkRegistry",
          "name": "",
          "type": "address"
        }
      ],
      "stateMutability": "view",
      "type": "function"
    },
    {
      "inputs": [
        {
          "internalType": "string",
          "name": "url",
          "type": "string"
        },
        {
          "internalType": "string",
          "name": "licenseCID",
          "type": "string"
        },
        {
          "internalType": "string",
          "name": "dmcaCID",
          "type": "string"
        }
      ],
      "name": "reportInfringement",
      "outputs": [],
      "stateMutability": "nonpayable",
      "type": "function"
    },
    {
      "inputs": [
        {
          "internalType": "address",
          "name": "",
          "type": "address"
        }
      ],
      "name": "rewards",
      "outputs": [
        {
          "internalType": "uint256",
          "name": "",
          "type": "uint256"
        }
      ],
      "stateMutability": "view",
      "type": "function"
    },
    {
      "inputs": [],
      "name": "withdraw",
      "outputs": [],
      "stateMutability": "nonpayable",
      "type": "function"
    },
    {
      "stateMutability": "payable",
      "type": "receive"
    }
  ],
  "bytecode": "0x608060405234801561001057600080fd5b50604051610a1b380380610a1b83398101604081905261002f91610092565b600080546001600160a01b039092166001600160a01b031992831617905560018054909116331790556100bb565b60006001600160a01b0382165b92915050565b6100798161005d565b811461008457600080fd5b50565b805161006a81610070565b6000602082840312156100a7576100a7600080fd5b60006100b38484610087565b949350505050565b610951806100ca6000396000f3fe60806040526004361061005e5760003560e01c80634353712e116100435780634353712e146100c45780637b103999146100e45780638da5cb5b1461011157600080fd5b80630700037d1461006a5780633ccfd60b146100ad57600080fd5b3661006557005b600080fd5b34801561007657600080fd5b50610097610085366004610418565b60026020526000908152604090205481565b6040516100a49190610449565b60405180910390f35b3480156100b957600080fd5b506100c261013e565b005b3480156100d057600080fd5b506100c26100df3660046104a9565b6101b3565b3480156100f057600080fd5b50600054610104906001600160a01b031681565b6040516100a49190610586565b34801561011d57600080fd5b50600154610131906001600160a01b031681565b6040516100a4919061059d565b33600090815260026020526040902054806101745760405162461bcd60e51b815260040161016b906105e2565b60405180910390fd5b336000818152600260205260408082208290555183156108fc0291849190818181858888f193505050501580156101af573d6000803e3d6000fd5b5050565b600080546040517f062b91da0000000000000000000000000000000000000000000000000000000081526001600160a01b039091169063062b91da906101ff908a908a90600401610621565b600060405180830381865afa15801561021c573d6000803e3d6000fd5b505050506040513d6000823e601f3d908101601f191682016040526102449190810190610782565b9550505050505080156102695760405162461bcd60e51b815260040161016b90610890565b6000546040517f0fec9efa0000000000000000000000000000000000000000000000000000000081526001600160a01b0390911690630fec9efa906102b8908a908a908a908a906004016108a0565b600060405180830381600087803b1580156102d257600080fd5b505af11580156102e6573d6000803e3d6000fd5b50506000546040517f8e7650c30000000000000000000000000000000000000000000000000000000081526001600160a01b039091169250638e7650c39150610339908a908a90889088906004016108a0565b600060405180830381600087803b15801561035357600080fd5b505af1158015610367573d6000803e3d6000fd5b50503360009081526002602052604081208054670de0b6b3a764000094508493509091906103969084906108e7565b909155505060405133907f3fb7f003111306c30a47c167d00a70462da79a5dfc8ae350a92c19dc2dfcc25c906103d1908b908b9086906108fa565b60405180910390a25050505050505050565b60006001600160a01b0382165b92915050565b6103ff816103e3565b811461040a57600080fd5b50565b80356103f0816103f6565b60006020828403121561042d5761042d600080fd5b6000610439848461040d565b949350505050565b805b82525050565b602081016103f08284610441565b60008083601f84011261046c5761046c600080fd5b50813567ffffffffffffffff81111561048757610487600080fd5b6020830191508360018202830111156104a2576104a2600080fd5b9250929050565b600080600080600080606087890312156104c5576104c5600080fd5b863567ffffffffffffffff8111156104df576104df600080fd5b6104eb89828a01610457565b9650965050602087013567ffffffffffffffff81111561050d5761050d600080fd5b61051989828a01610457565b9450945050604087013567ffffffffffffffff81111561053b5761053b600080fd5b61054789828a01610457565b92509250509295509295509295565b60006001600160a01b0382166103f0565b60006103f082610556565b60006103f082610567565b61044381610572565b602081016103f0828461057d565b610443816103e3565b602081016103f08284610594565b600a81526000602082017f4e6f207265776172647300000000000000000000000000000000000000000000815291505b5060200190565b602080825281016103f0816105ab565b82818337506000910152565b81835260006020840193506106148385846105f2565b5050601f01601f19160190565b602080825281016104398184866105fe565b634e487b7160e01b600052604160045260246000fd5b601f19601f830116810181811067ffffffffffffffff8211171561066f5761066f610633565b6040525050565b600061068160405190565b905061068d8282610649565b919050565b600067ffffffffffffffff8211156106ac576106ac610633565b601f19601f83011660200192915050565b60005b838110156106d85781810151838201526020016106c0565b50506000910152565b60006106f46106ef84610692565b610676565b90508281526020810184848401111561070f5761070f600080fd5b61071a8482856106bd565b509392505050565b600082601f83011261073657610736600080fd5b81516104398482602086016106e1565b6002811061040a57600080fd5b80516103f081610746565b806103ff565b80516103f08161075e565b8015156103ff565b80516103f08161076f565b60008060008060008060c0878903121561079e5761079e600080fd5b865167ffffffffffffffff8111156107b8576107b8600080fd5b6107c489828a01610722565b965050602087015167ffffffffffffffff8111156107e4576107e4600080fd5b6107f089828a01610722565b955050604087015167ffffffffffffffff81111561081057610810600080fd5b61081c89828a01610722565b945050606061082d89828a01610753565b935050608061083e89828a01610764565b92505060a061084f89828a01610777565b9150509295509295509295565b601781526000602082017f4c696e6b20616c72656164792072656769737465726564000000000000000000815291506105db565b602080825281016103f08161085c565b604080825281016108b28186886105fe565b905081810360208301526108c78184866105fe565b9695505050505050565b634e487b7160e01b600052601160045260246000fd5b808201808211156103f0576103f06108d1565b6040808252810161090c8185876105fe565b9050610439602083018461044156fea26469706673582212201cc6538b571ed6101535cefef6f6e2b541feec9d8eed266212a82f265aa28d3964736f6c63430008170033",
  "linkReferences": {},
  "deployedLinkReferences": {}
}