{
  "_format": "hh-sol-artifact-1",
  "contractName": "GitHubRepoProtection",
  "sourceName": "contracts/GitHubRepoProtection.sol",
  "abi": [
    {
      "anonymous": false,
      "inputs": [
        {
          "indexed": true,
          "internalType": "uint256",
          "name": "repoId",
          "type": "uint256"
        },
        {
          "indexed": false,
          "internalType": "string",
          "name": "newLicense",
          "type": "string"
        }
      ],
      "name": "LicenseUpdated",
      "type": "event"
    },
    {
      "anonymous": false,
      "inputs": [
        {
          "indexed": true,
          "internalType": "address",
          "name": "previousOwner",
          "type": "address"
        },
        {
          "indexed": true,
          "internalType": "address",
          "name": "newOwner",
          "type": "address"
        }
      ],
      "name": "OwnershipTransferred",
      "type": "event"
    },
    {
      "anonymous": false,
      "inputs": [
        {
          "indexed": true,
          "internalType": "uint256",
          "name": "repoId",
          "type": "uint256"
        },
        {
          "indexed": true,
          "internalType": "address",
          "name": "owner",
          "type": "address"
        },
        {
          "indexed": false,
          "internalType": "string",
          "name": "githubUrl",
          "type": "string"
        },
        {
          "indexed": false,
          "internalType": "string",
          "name": "repoHash",
          "type": "string"
        }
      ],
      "name": "RepositoryRegistered",
      "type": "event"
    },
    {
      "anonymous": false,
      "inputs": [
        {
          "indexed": true,
          "internalType": "uint256",
          "name": "violationId",
          "type": "uint256"
        },
        {
          "indexed": true,
          "internalType": "uint256",
          "name": "originalRepoId",
          "type": "uint256"
        },
        {
          "indexed": true,
          "internalType": "address",
          "name": "reporter",
          "type": "address"
        },
        {
          "indexed": false,
          "internalType": "string",
          "name": "violatingUrl",
          "type": "string"
        },
        {
          "indexed": false,
          "internalType": "uint256",
          "name": "similarityScore",
          "type": "uint256"
        }
      ],
      "name": "ViolationReported",
      "type": "event"
    },
    {
      "anonymous": false,
      "inputs": [
        {
          "indexed": true,
          "internalType": "uint256",
          "name": "violationId",
          "type": "uint256"
        },
        {
          "indexed": false,
          "internalType": "enum GitHubRepoProtection.ViolationStatus",
          "name": "newStatus",
          "type": "uint8"
        },
        {
          "indexed": false,
          "internalType": "string",
          "name": "dmcaReference",
          "type": "string"
        }
      ],
      "name": "ViolationStatusUpdated",
      "type": "event"
    },
    {
      "inputs": [
        {
          "internalType": "uint256",
          "name": "repoId",
          "type": "uint256"
        }
      ],
      "name": "deactivateRepository",
      "outputs": [],
      "stateMutability": "nonpayable",
      "type": "function"
    },
    {
      "inputs": [
        {
          "internalType": "uint256",
          "name": "repoId",
          "type": "uint256"
        }
      ],
      "name": "getRepository",
      "outputs": [
        {
          "components": [
            {
              "internalType": "uint256",
              "name": "id",
              "type": "uint256"
            },
            {
              "internalType": "address",
              "name": "owner",
              "type": "address"
            },
            {
              "internalType": "string",
              "name": "githubUrl",
              "type": "string"
            },
            {
              "internalType": "string",
              "name": "repoHash",
              "type": "string"
            },
            {
              "internalType": "string",
              "name": "codeFingerprint",
              "type": "string"
            },
            {
              "internalType": "string[]",
              "name": "keyFeatures",
              "type": "string[]"
            },
            {
              "internalType": "string",
              "name": "licenseType",
              "type": "string"
            },
            {
              "internalType": "uint256",
              "name": "registeredAt",
              "type": "uint256"
            },
            {
              "internalType": "bool",
              "name": "isActive",
              "type": "bool"
            },
            {
              "internalType": "string",
              "name": "ipfsMetadata",
              "type": "string"
            }
          ],
          "internalType": "struct GitHubRepoProtection.Repository",
          "name": "",
          "type": "tuple"
        }
      ],
      "stateMutability": "view",
      "type": "function"
    },
    {
      "inputs": [
        {
          "internalType": "string",
          "name": "repoHash",
          "type": "string"
        }
      ],
      "name": "getRepositoryByHash",
      "outputs": [
        {
          "components": [
            {
              "internalType": "uint256",
              "name": "id",
              "type": "uint256"
            },
            {
              "internalType": "address",
              "name": "owner",
              "type": "address"
            },
            {
              "internalType": "string",
              "name": "githubUrl",
              "type": "string"
            },
            {
              "internalType": "string",
              "name": "repoHash",
              "type": "string"
            },
            {
              "internalType": "string",
              "name": "codeFingerprint",
              "type": "string"
            },
            {
              "internalType": "string[]",
              "name": "keyFeatures",
              "type": "string[]"
            },
            {
              "internalType": "string",
              "name": "licenseType",
              "type": "string"
            },
            {
              "internalType": "uint256",
              "name": "registeredAt",
              "type": "uint256"
            },
            {
              "internalType": "bool",
              "name": "isActive",
              "type": "bool"
            },
            {
              "internalType": "string",
              "name": "ipfsMetadata",
              "type": "string"
            }
          ],
          "internalType": "struct GitHubRepoProtection.Repository",
          "name": "",
          "type": "tuple"
        }
      ],
      "stateMutability": "view",
      "type": "function"
    },
    {
      "inputs": [
        {
          "internalType": "uint256",
          "name": "repoId",
          "type": "uint256"
        }
      ],
      "name": "getRepositoryViolations",
      "outputs": [
        {
          "internalType": "uint256[]",
          "name": "",
          "type": "uint256[]"
        }
      ],
      "stateMutability": "view",
      "type": "function"
    },
    {
      "inputs": [],
      "name": "getTotalRepositories",
      "outputs": [
        {
          "internalType": "uint256",
          "name": "",
          "type": "uint256"
        }
      ],
      "stateMutability": "view",
      "type": "function"
    },
    {
      "inputs": [],
      "name": "getTotalViolations",
      "outputs": [
        {
          "internalType": "uint256",
          "name": "",
          "type": "uint256"
        }
      ],
      "stateMutability": "view",
      "type": "function"
    },
    {
      "inputs": [
        {
          "internalType": "address",
          "name": "user",
          "type": "address"
        }
      ],
      "name": "getUserRepositories",
      "outputs": [
        {
          "internalType": "uint256[]",
          "name": "",
          "type": "uint256[]"
        }
      ],
      "stateMutability": "view",
      "type": "function"
    },
    {
      "inputs": [
        {
          "internalType": "uint256",
          "name": "violationId",
          "type": "uint256"
        }
      ],
      "name": "getViolation",
      "outputs": [
        {
          "components": [
            {
              "internalType": "uint256",
              "name": "id",
              "type": "uint256"
            },
            {
              "internalType": "uint256",
              "name": "originalRepoId",
              "type": "uint256"
            },
            {
              "internalType": "address",
              "name": "reporter",
              "type": "address"
            },
            {
              "internalType": "string",
              "name": "violatingUrl",
              "type": "string"
            },
            {
              "internalType": "string",
              "name": "evidenceHash",
              "type": "string"
            },
            {
              "internalType": "uint256",
              "name": "similarityScore",
              "type": "uint256"
            },
            {
              "internalType": "enum GitHubRepoProtection.ViolationStatus",
              "name": "status",
              "type": "uint8"
            },
            {
              "internalType": "uint256",
              "name": "reportedAt",
              "type": "uint256"
            },
            {
              "internalType": "string",
              "name": "dmcaReference",
              "type": "string"
            }
          ],
          "internalType": "struct GitHubRepoProtection.CodeViolation",
          "name": "",
          "type": "tuple"
        }
      ],
      "stateMutability": "view",
      "type": "function"
    },
    {
      "inputs": [],
      "name": "owner",
      "outputs": [
        {
          "internalType": "address",
          "name": "",
          "type": "address"
        }
      ],
      "stateMutability": "view",
      "type": "function"
    },
    {
      "inputs": [
        {
          "internalType": "string",
          "name": "githubUrl",
          "type": "string"
        },
        {
          "internalType": "string",
          "name": "repoHash",
          "type": "string"
        },
        {
          "internalType": "string",
          "name": "codeFingerprint",
          "type": "string"
        },
        {
          "internalType": "string[]",
          "name": "keyFeatures",
          "type": "string[]"
        },
        {
          "internalType": "string",
          "name": "licenseType",
          "type": "string"
        },
        {
          "internalType": "string",
          "name": "ipfsMetadata",
          "type": "string"
        }
      ],
      "name": "registerRepository",
      "outputs": [
        {
          "internalType": "uint256",
          "name": "",
          "type": "uint256"
        }
      ],
      "stateMutability": "nonpayable",
      "type": "function"
    },
    {
      "inputs": [],
      "name": "renounceOwnership",
      "outputs": [],
      "stateMutability": "nonpayable",
      "type": "function"
    },
    {
      "inputs": [
        {
          "internalType": "string",
          "name": "",
          "type": "string"
        }
      ],
      "name": "repoHashToId",
      "outputs": [
        {
          "internalType": "uint256",
          "name": "",
          "type": "uint256"
        }
      ],
      "stateMutability": "view",
      "type": "function"
    },
    {
      "inputs": [
        {
          "internalType": "uint256",
          "name": "",
          "type": "uint256"
        },
        {
          "internalType": "uint256",
          "name": "",
          "type": "uint256"
        }
      ],
      "name": "repoViolations",
      "outputs": [
        {
          "internalType": "uint256",
          "name": "",
          "type": "uint256"
        }
      ],
      "stateMutability": "view",
      "type": "function"
    },
    {
      "inputs": [
        {
          "internalType": "uint256",
          "name": "originalRepoId",
          "type": "uint256"
        },
        {
          "internalType": "string",
          "name": "violatingUrl",
          "type": "string"
        },
        {
          "internalType": "string",
          "name": "evidenceHash",
          "type": "string"
        },
        {
          "internalType": "uint256",
          "name": "similarityScore",
          "type": "uint256"
        }
      ],
      "name": "reportViolation",
      "outputs": [
        {
          "internalType": "uint256",
          "name": "",
          "type": "uint256"
        }
      ],
      "stateMutability": "nonpayable",
      "type": "function"
    },
    {
      "inputs": [
        {
          "internalType": "uint256",
          "name": "",
          "type": "uint256"
        }
      ],
      "name": "repositories",
      "outputs": [
        {
          "internalType": "uint256",
          "name": "id",
          "type": "uint256"
        },
        {
          "internalType": "address",
          "name": "owner",
          "type": "address"
        },
        {
          "internalType": "string",
          "name": "githubUrl",
          "type": "string"
        },
        {
          "internalType": "string",
          "name": "repoHash",
          "type": "string"
        },
        {
          "internalType": "string",
          "name": "codeFingerprint",
          "type": "string"
        },
        {
          "internalType": "string",
          "name": "licenseType",
          "type": "string"
        },
        {
          "internalType": "uint256",
          "name": "registeredAt",
          "type": "uint256"
        },
        {
          "internalType": "bool",
          "name": "isActive",
          "type": "bool"
        },
        {
          "internalType": "string",
          "name": "ipfsMetadata",
          "type": "string"
        }
      ],
      "stateMutability": "view",
      "type": "function"
    },
    {
      "inputs": [
        {
          "internalType": "address",
          "name": "newOwner",
          "type": "address"
        }
      ],
      "name": "transferOwnership",
      "outputs": [],
      "stateMutability": "nonpayable",
      "type": "function"
    },
    {
      "inputs": [
        {
          "internalType": "uint256",
          "name": "repoId",
          "type": "uint256"
        },
        {
          "internalType": "string",
          "name": "newLicense",
          "type": "string"
        }
      ],
      "name": "updateLicense",
      "outputs": [],
      "stateMutability": "nonpayable",
      "type": "function"
    },
    {
      "inputs": [
        {
          "internalType": "uint256",
          "name": "violationId",
          "type": "uint256"
        },
        {
          "internalType": "enum GitHubRepoProtection.ViolationStatus",
          "name": "newStatus",
          "type": "uint8"
        },
        {
          "internalType": "string",
          "name": "dmcaReference",
          "type": "string"
        }
      ],
      "name": "updateViolationStatus",
      "outputs": [],
      "stateMutability": "nonpayable",
      "type": "function"
    },
    {
      "inputs": [
        {
          "internalType": "address",
          "name": "",
          "type": "address"
        },
        {
          "internalType": "uint256",
          "name": "",
          "type": "uint256"
        }
      ],
      "name": "userRepositories",
      "outputs": [
        {
          "internalType": "uint256",
          "name": "",
          "type": "uint256"
        }
      ],
      "stateMutability": "view",
      "type": "function"
    },
    {
      "inputs": [
        {
          "internalType": "uint256",
          "name": "",
          "type": "uint256"
        }
      ],
      "name": "violations",
      "outputs": [
        {
          "internalType": "uint256",
          "name": "id",
          "type": "uint256"
        },
        {
          "internalType": "uint256",
          "name": "originalRepoId",
          "type": "uint256"
        },
        {
          "internalType": "address",
          "name": "reporter",
          "type": "address"
        },
        {
          "internalType": "string",
          "name": "violatingUrl",
          "type": "string"
        },
        {
          "internalType": "string",
          "name": "evidenceHash",
          "type": "string"
        },
        {
          "internalType": "uint256",
          "name": "similarityScore",
          "type": "uint256"
        },
        {
          "internalType": "enum GitHubRepoProtection.ViolationStatus",
          "name": "status",
          "type": "uint8"
        },
        {
          "internalType": "uint256",
          "name": "reportedAt",
          "type": "uint256"
        },
        {
          "internalType": "string",
          "name": "dmcaReference",
          "type": "string"
        }
      ],
      "stateMutability": "view",
      "type": "function"
    }
  ],
  "bytecode": "0x60808060405234605e5760008054336001600160a01b0319821681178355916001600160a01b03909116907f8be0079c531659141344cd1fd0a4f28419497f9722a3daafe3b4186f6b6457e09080a3600180556126bb90816100648239f35b600080fdfe6080604052600436101561001257600080fd5b60003560e01c80630566649514611fde57806306f5d79314611c2957806324b6736f14611bf05780634c5765d114611a5d578063577a09ab14611a3f5780635be08933146119175780635d9cb8b1146118f957806368eca5e914610e7457806369a2a9da146107f5578063715018a61461079c578063742998a6146105b257806376652709146104b85780637d2d7e30146104415780638da5cb5b14610418578063b995bb9514610345578063e1db8e3e146102ec578063e80dc91614610290578063f2b5d99f1461023d578063f2fde38b146101765763f9d2565f146100f857600080fd5b34610171576020366003190112610171576004356000526008602052604060002060405190816020825491828152019160005260206000209060005b81811061015b576101578561014b81870382612188565b604051918291826124b2565b0390f35b8254845260209093019260019283019201610134565b600080fd5b346101715760203660031901126101715761018f61249c565b61019761262d565b6001600160a01b031680156101e957600080546001600160a01b03198116831782556001600160a01b0316907f8be0079c531659141344cd1fd0a4f28419497f9722a3daafe3b4186f6b6457e09080a3005b60405162461bcd60e51b815260206004820152602660248201527f4f776e61626c653a206e6577206f776e657220697320746865207a65726f206160448201526564647265737360d01b6064820152608490fd5b346101715760203660031901126101715760043580600052600460205261027560018060a01b036001604060002001541633146125ea565b6000908152600460205260409020600801805460ff19169055005b34610171576020366003190112610171576004356001600160401b038111610171576102d960206102c6819336906004016121a9565b81604051938285809451938492016121ff565b8101600781520301902054604051908152f35b346101715760403660031901126101715761030561249c565b6001600160a01b0316600090815260066020526040902080546024359190821015610171576020916103369161236c565b90549060031b1c604051908152f35b346101715760203660031901126101715760043560005260056020526040600020805461015760018301549260018060a01b0360028201541661038a600383016123f8565b9161040561039a600483016123f8565b936103f56005840154956103e760ff600687015416936103c16008600789015498016123f8565b976040519c8d9c8d5260208d015260408c015261012060608c01526101208b0190612222565b9089820360808b0152612222565b9460a088015260c087019061239a565b60e0850152838203610100850152612222565b34610171576000366003190112610171576000546040516001600160a01b039091168152602090f35b34610171576020366003190112610171576001600160a01b0361046261249c565b166000526006602052604060002060405190816020825491828152019160005260206000209060005b8181106104a2576101578561014b81870382612188565b825484526020909301926001928301920161048b565b346101715760203660031901126101715760048035600090815260209190915260409020805460018201546001600160a01b0316916104f9600282016123f8565b90610506600382016123f8565b90610513600482016123f8565b61051f600683016123f8565b90600783015493600884015460ff169360090161053b906123f8565b9560405198899889526020890152604088016101209052610120880161056091612222565b878103606089015261057191612222565b868103608088015261058291612222565b85810360a087015261059391612222565b9160c0850152151560e084015282810361010084015261015791612222565b34610171576040366003190112610171576004356024356001600160401b038111610171576105e59036906004016121a9565b9080600052600460205261060a60018060a01b036001604060002001541633146125ea565b8060005260046020526006604060002001918051926001600160401b0384116107865761063781546123be565b601f8111610749575b50602093601f81116001146106bf5790610698826106af94937f05507f19d569e30742dfebcb34faeec4e2bcaa9f48a5e3b862d9faa76210a96396976000916106b4575b508160011b916000199060031b1c19161790565b90555b604051918291602083526020830190612222565b0390a2005b905084015188610684565b601f19811682600052856000209060005b8181106107315750916001917f05507f19d569e30742dfebcb34faeec4e2bcaa9f48a5e3b862d9faa76210a9639697826106af97969510610718575b5050811b01905561069b565b85015160001960f88460031b161c19169055878061070c565b858801518355602097880197600190930192016106d0565b61077690826000526020600020601f870160051c8101916020881061077c575b601f0160051c0190612552565b84610640565b9091508190610769565b634e487b7160e01b600052604160045260246000fd5b34610171576000366003190112610171576107b561262d565b600080546001600160a01b0319811682556001600160a01b03167f8be0079c531659141344cd1fd0a4f28419497f9722a3daafe3b4186f6b6457e08280a3005b34610171576080366003190112610171576004356024356001600160401b038111610171576108289036906004016121a9565b906044356001600160401b038111610171576108489036906004016121a9565b906064359080600052600460205260406000205415610e2f5780600052600460205260ff6008604060002001541615610dea5761088a60026001541415612569565b6002600155835115610dac5760648211610d675760468210610d22576005936001600354018094816003556040516108c18161216c565b8281526020810191858352604082019033825260608301908682526080840190815260a084019189835260c08501936000855260e086019642885260209d8e6040519a61090e828d612188565b6000808d526101008b019c8d529081529190526040902096518755516001870155516002860180546001600160a01b0319166001600160a01b03929092169190911790555180516003860191906001600160401b038111610786578d61097484546123be565b90601f8211610cf1575b50508d80601f8311600114610c88575081906109b193600092610c7d575b50508160011b916000199060031b1c19161790565b90555b60048401905180516001600160401b038111610786576109d483546123be565b8d601f8211610c4c575b50508c8d601f8311600114610be357508190610a1093600092610bd85750508160011b916000199060031b1c19161790565b90555b51600583015551916005831015610bc257610a336008936006840161253a565b516007820155019051918251916001600160401b038311610786578692610a5a82546123be565b601f8111610b92575b508894601f8211600114610b065790807f38d0c9512a967904f5645848c4e285976e101000a5313bc9cc35ebb46d5959429596610ab693600092610afb5750508160011b916000199060031b1c19161790565b90555b8360005260088752610acf8360406000206125b5565b610ae460405191604083526040830190612222565b94878201528033950390a460018055604051908152f35b015190508b8061099c565b94601f19821695836000528a6000209660005b8c828210610b79575050917f38d0c9512a967904f5645848c4e285976e101000a5313bc9cc35ebb46d595942969791846001959410610b60575b505050811b019055610ab9565b015160001960f88460031b161c191690558a8080610b53565b848401518a556001909901988c98509384019301610b19565b610bbc90836000528a600020601f840160051c8101918c851061077c57601f0160051c0190612552565b89610a63565b634e487b7160e01b600052602160045260246000fd5b015190508e8061099c565b9192601f1984168560005283600020936000905b828210610c34575050908460019594939210610c1b575b505050811b019055610a13565b015160001960f88460031b161c191690558d8080610c0e565b80600186978294978701518155019601940190610bf7565b610c7691856000528160002090601f850160051c820192851061077c57601f0160051c0190612552565b8d8d6109de565b015190508f8061099c565b9192601f1984168560005283600020936000905b828210610cd9575050908460019594939210610cc0575b505050811b0190556109b4565b015160001960f88460031b161c191690558e8080610cb3565b80600186978294978701518155019601940190610c9c565b610d1b91856000528160002090601f850160051c820192851061077c57601f0160051c0190612552565b8e8e61097e565b60405162461bcd60e51b815260206004820152601860248201527f53696d696c61726974792073636f726520746f6f206c6f7700000000000000006044820152606490fd5b60405162461bcd60e51b815260206004820152601860248201527f496e76616c69642073696d696c61726974792073636f726500000000000000006044820152606490fd5b60405162461bcd60e51b8152602060048201526016602482015275159a5bdb185d1a5b99c8155493081c995c5d5a5c995960521b6044820152606490fd5b60405162461bcd60e51b815260206004820152601860248201527f5265706f7369746f7279206973206e6f742061637469766500000000000000006044820152606490fd5b60405162461bcd60e51b815260206004820152601960248201527f5265706f7369746f727920646f6573206e6f74206578697374000000000000006044820152606490fd5b346101715760c0366003190112610171576004356001600160401b03811161017157610ea49036906004016121a9565b6024356001600160401b03811161017157610ec39036906004016121a9565b6044356001600160401b03811161017157610ee29036906004016121a9565b906064356001600160401b0381116101715736602382011215610171578060040135610f0d816123a7565b91610f1b6040519384612188565b8183526024602084019260051b820101903682116101715760248101925b8284106118ca57505050506084356001600160401b03811161017157610f639036906004016121a9565b9360a4356001600160401b03811161017157610f839036906004016121a9565b94610f9360026001541415612569565b600260015581511561188f5783511561184a576040519284519360208181880196610fbf81838a6121ff565b810160078152030190205461180557600160025401958660025560405192610fe684612150565b87845260208401923384526040850192868452606086018981526080870191825260a0870192835260c0870193845260e08701944286526101008801966001885261012089019d8e528c600052600460205260406000209851895560018060a01b03905116600189019060018060a01b03166bffffffffffffffffffffffff60a01b8254161790556002880190518051906001600160401b0382116107865761108f83546123be565b601f81116117d3575b50602090601f831160011461176c576110c99291600091836115125750508160011b916000199060031b1c19161790565b90555b51805160038801916001600160401b038211610786576110ec83546123be565b601f811161173a575b50602090601f83116001146116d357611126929160009183610c7d5750508160011b916000199060031b1c19161790565b90555b51805160048701916001600160401b0382116107865761114983546123be565b601f81116116a1575b50602090601f831160011461163a57611183929160009183610bd85750508160011b916000199060031b1c19161790565b90555b5180516005860191600160401b82116107865782548284558083106115bc575b50602001916000526020600020916000905b8282106114a457505050506006840190518051906001600160401b038211610786576111e483546123be565b601f8111611472575b50602090601f831160011461140557918061122592600998979695946000926113fa5750508160011b916000199060031b1c19161790565b90555b516007830155600882019051151560ff80198354169116179055019451918251956001600160401b03871161078657602096869461126683546123be565b601f81116113ca575b508890601f831160011461133557611318947ff53884b389f843105d66e5ab2c843ebe65a3d79d40f62a4d709d4f8a6763912d96946112cc858a966112f6968f96600092610c7d5750508160011b916000199060031b1c19161790565b90555b33600052600682526112e58460406000206125b5565b604051809381928b519283916121ff565b8101600781520301902055611326604051928392604084526040840190612222565b828103898401523396612222565b0390a360018055604051908152f35b90601f1983169184600052816000209260005b8181106113b05750946001856112f6958e956113189a958d997ff53884b389f843105d66e5ab2c843ebe65a3d79d40f62a4d709d4f8a6763912d9d9b10611397575b505050811b0190556112cf565b015160001960f88460031b161c191690558e808061138a565b8284015185558b9950600190940193928c01928c01611348565b6113f490846000528a600020601f850160051c8101918c861061077c57601f0160051c0190612552565b8961126f565b015190508d8061099c565b90601f1983169184600052816000209260005b81811061145a575091600193918560099a999897969410611441575b505050811b019055611228565b015160001960f88460031b161c191690558c8080611434565b92936020600181928786015181550195019301611418565b61149e90846000526020600020601f850160051c8101916020861061077c57601f0160051c0190612552565b8b6111ed565b80518051906001600160401b038211610786576114c186546123be565b601f811161158a575b50602090601f831160011461151d5792611503836001959460209487966000926115125750508160011b916000199060031b1c19161790565b87555b019401910190926111b8565b01519050388061099c565b90601f1983169187600052816000209260005b8181106115725750936020936001969387969383889510611559575b505050811b018755611506565b015160001960f88460031b161c1916905538808061154c565b92936020600181928786015181550195019301611530565b6115b690876000526020600020601f850160051c8101916020861061077c57601f0160051c0190612552565b8f6114ca565b8360005282602060002091820191015b8181106115d957506111a6565b806115e6600192546123be565b806115f3575b50016115cc565b601f811183146116095750600081555b8f6115ec565b611627908260005283601f6020600020920160051c82019101612552565b8060005260006020812081835555611603565b90601f1983169184600052816000209260005b8181106116895750908460019594939210611670575b505050811b019055611186565b015160001960f88460031b161c191690558d8080611663565b9293602060018192878601518155019501930161164d565b6116cd90846000526020600020601f850160051c8101916020861061077c57601f0160051c0190612552565b8d611152565b90601f1983169184600052816000209260005b8181106117225750908460019594939210611709575b505050811b019055611129565b015160001960f88460031b161c191690558e80806116fc565b929360206001819287860151815501950193016116e6565b61176690846000526020600020601f850160051c8101916020861061077c57601f0160051c0190612552565b8e6110f5565b90601f1983169184600052816000209260005b8181106117bb57509084600195949392106117a2575b505050811b0190556110cc565b015160001960f88460031b161c191690558f8080611795565b9293602060018192878601518155019501930161177f565b6117ff90846000526020600020601f850160051c8101916020861061077c57601f0160051c0190612552565b8f611098565b60405162461bcd60e51b815260206004820152601d60248201527f5265706f7369746f727920616c726561647920726567697374657265640000006044820152606490fd5b60405162461bcd60e51b815260206004820152601860248201527f5265706f7369746f7279206861736820726571756972656400000000000000006044820152606490fd5b60405162461bcd60e51b815260206004820152601360248201527211da5d121d5888155493081c995c5d5a5c9959606a1b6044820152606490fd5b83356001600160401b038111610171576020916118ee8392602436918701016121a9565b815201930192610f39565b34610171576000366003190112610171576020600354604051908152f35b34610171576020366003190112610171576119306124ec565b506004356000526004602052604060002060405161194d81612150565b8154815260018201546001600160a01b03166020820152611970600283016123f8565b6040820152611981600383016123f8565b6060820152611992600483016123f8565b60808201526005820180546119a6816123a7565b916119b46040519384612188565b818352602083019060005260206000206000915b838310611a225761015786611a1060098a8960a08501526119eb600682016123f8565b60c0850152600781015460e085015260ff6008820154161515610100850152016123f8565b61012082015260405191829182612247565b600160208192611a31856123f8565b8152019201920191906119c8565b34610171576000366003190112610171576020600254604051908152f35b34610171576020366003190112610171576060610100604051611a7f8161216c565b6000815260006020820152600060408201528280820152826080820152600060a0820152600060c0820152600060e0820152015260043560005260056020526040600020604051611acf8161216c565b8154815260018201546020820190815260028301546001600160a01b031660408301908152909290611b03600383016123f8565b9360608401948552611b17600484016123f8565b946080850195865260058401549260a0860193845260ff6006860154169460c08701906005871015610bc257602098611bb18995611bd695611b706008611bc4966101579d895260e060078201549b019a8b52016123f8565b986101008d01998a526040518e819f9e829f8352519101525160408d015260018060a01b0390511660608c01525161012060808c01526101408b0190612222565b9051898203601f190160a08b0152612222565b945160c08801525160e087019061239a565b5161010085015251838203601f1901610120850152612222565b3461017157604036600319011261017157602435600435600052600860205260406000208054821015610171576020916103369161236c565b34610171576060366003190112610171576004356024356005811015610171576044356001600160401b03811161017157611c689036906004016121a9565b8260005260056020526040600020805415611f9957600181015460005260046020526040600020604051611c9b81612150565b8154815260018201546001600160a01b03166020820190815291611cc1600282016123f8565b6040830152611cd2600382016123f8565b6060830152611ce3600482016123f8565b6080830152600581018054611cf7816123a7565b91611d056040519384612188565b818352602083019060005260206000206000915b838310611f7c5750505050600961012092611d649260a0860152611d3f600682016123f8565b60c0860152600781015460e086015260ff6008820154161515610100860152016123f8565b910152516001600160a01b031633148015611f68575b15611f3257611d8c836006830161253a565b81519081611ddc575b847f3060f9311adae7f2ea4e77458f87f3e560706eff19ac0e29e8853d0d73f9b5ab611dcb866106af876040519384809461239a565b604060208401526040830190612222565b600801906001600160401b03811161078657611df882546123be565b601f8111611f00575b506020601f8211600114611e7257927f3060f9311adae7f2ea4e77458f87f3e560706eff19ac0e29e8853d0d73f9b5ab9492611e5a836106af94611dcb97600091611e6757508160011b916000199060031b1c19161790565b90555b9250819350611d95565b90508401518a610684565b601f1982169083600052806000209160005b818110611ee8575083611dcb96937f3060f9311adae7f2ea4e77458f87f3e560706eff19ac0e29e8853d0d73f9b5ab9896936106af9660019410611ecf575b5050811b019055611e5d565b85015160001960f88460031b161c191690558980611ec3565b9192602060018192868a015181550194019201611e84565b611f2c90836000526020600020601f840160051c8101916020851061077c57601f0160051c0190612552565b85611e01565b60405162461bcd60e51b815260206004820152600e60248201526d139bdd08185d5d1a1bdc9a5e995960921b6044820152606490fd5b506000546001600160a01b03163314611d7a565b600160208192611f8b856123f8565b815201920192019190611d19565b60405162461bcd60e51b815260206004820152601860248201527f56696f6c6174696f6e20646f6573206e6f7420657869737400000000000000006044820152606490fd5b34610171576020366003190112610171576004356001600160401b03811161017157602061201361202f9236906004016121a9565b61201b6124ec565b5081604051938285809451938492016121ff565b81016007815203019020548015612114576000526004602052604060002060405161205981612150565b8154815260018201546001600160a01b0316602082015261207c600283016123f8565b604082015261208d600383016123f8565b606082015261209e600483016123f8565b60808201526005820180546120b2816123a7565b916120c06040519384612188565b818352602083019060005260206000206000915b8383106120f75761015786611a1060098a8960a08501526119eb600682016123f8565b600160208192612106856123f8565b8152019201920191906120d4565b60405162461bcd60e51b815260206004820152601460248201527314995c1bdcda5d1bdc9e481b9bdd08199bdd5b9960621b6044820152606490fd5b61014081019081106001600160401b0382111761078657604052565b61012081019081106001600160401b0382111761078657604052565b90601f801991011681019081106001600160401b0382111761078657604052565b81601f82011215610171578035906001600160401b03821161078657604051926121dd601f8401601f191660200185612188565b8284526020838301011161017157816000926020809301838601378301015290565b60005b8381106122125750506000910152565b8181015183820152602001612202565b9060209161223b815180928185528580860191016121ff565b601f01601f1916010190565b9190602083528051602084015260018060a01b0360208201511660408401526122b361229d61228760408401516101406060880152610160870190612222565b6060840151868203601f19016080880152612222565b6080830151858203601f190160a0870152612222565b9260a082015193601f198282030160c0830152845180825260208201906020808260051b8501019701916000905b82821061233e57505050505061012061230e61233b949560c0850151601f198583030160e0860152612222565b9260e0810151610100840152610100810151151582840152015190610140601f1982850301910152612222565b90565b909192939760208061235c600193601f198d82030186528851612222565b9a960194939190910191016122e1565b80548210156123845760005260206000200190600090565b634e487b7160e01b600052603260045260246000fd5b906005821015610bc25752565b6001600160401b0381116107865760051b60200190565b90600182811c921680156123ee575b60208310146123d857565b634e487b7160e01b600052602260045260246000fd5b91607f16916123cd565b906040519182600082549261240c846123be565b808452936001811690811561247a5750600114612433575b5061243192500383612188565b565b90506000929192526020600020906000915b81831061245e5750509060206124319282010138612424565b6020919350806001915483858901015201910190918492612445565b90506020925061243194915060ff191682840152151560051b82010138612424565b600435906001600160a01b038216820361017157565b602060408183019282815284518094520192019060005b8181106124d65750505090565b82518452602093840193909201916001016124c9565b604051906124f982612150565b606061012083600081526000602082015282604082015282808201528260808201528260a08201528260c0820152600060e082015260006101008201520152565b906005811015610bc25760ff80198354169116179055565b81811061255d575050565b60008155600101612552565b1561257057565b60405162461bcd60e51b815260206004820152601f60248201527f5265656e7472616e637947756172643a207265656e7472616e742063616c6c006044820152606490fd5b8054600160401b811015610786576125d29160018201815561236c565b819291549060031b91821b91600019901b1916179055565b156125f157565b60405162461bcd60e51b81526020600482015260146024820152732737ba103932b837b9b4ba37b93c9037bbb732b960611b6044820152606490fd5b6000546001600160a01b0316330361264157565b606460405162461bcd60e51b815260206004820152602060248201527f4f776e61626c653a2063616c6c6572206973206e6f7420746865206f776e65726044820152fdfea2646970667358221220c8398ce6383696bc88fd2d4876cc8ee48c487122e3f40d5430726b11189e0e3c64736f6c634300081c0033",
  "linkReferences": {},
  "deployedLinkReferences": {}
}