{
  "_format": "hh-sol-artifact-1",
  "contractName": "LinkRegistry",
  "sourceName": "contracts/filefind/LinkRegistry.sol",
  "abi": [
    {
      "inputs": [],
      "stateMutability": "nonpayable",
      "type": "constructor"
    },
    {
      "anonymous": false,
      "inputs": [
        {
          "indexed": false,
          "internalType": "string",
          "name": "url",
          "type": "string"
        },
        {
          "indexed": false,
          "internalType": "string",
          "name": "dmcaCID",
          "type": "string"
        },
        {
          "indexed": false,
          "internalType": "uint256",
          "name": "timestamp",
          "type": "uint256"
        }
      ],
      "name": "DMCAFiled",
      "type": "event"
    },
    {
      "anonymous": false,
      "inputs": [
        {
          "indexed": false,
          "internalType": "string",
          "name": "url",
          "type": "string"
        },
        {
          "indexed": false,
          "internalType": "string",
          "name": "licenseCID",
          "type": "string"
        },
        {
          "indexed": false,
          "internalType": "uint256",
          "name": "timestamp",
          "type": "uint256"
        }
      ],
      "name": "LinkAdded",
      "type": "event"
    },
    {
      "inputs": [
        {
          "internalType": "string",
          "name": "url",
          "type": "string"
        },
        {
          "internalType": "string",
          "name": "licenseCID",
          "type": "string"
        }
      ],
      "name": "addLink",
      "outputs": [],
      "stateMutability": "nonpayable",
      "type": "function"
    },
    {
      "inputs": [
        {
          "internalType": "uint256",
          "name": "",
          "type": "uint256"
        }
      ],
      "name": "allLinks",
      "outputs": [
        {
          "internalType": "string",
          "name": "",
          "type": "string"
        }
      ],
      "stateMutability": "view",
      "type": "function"
    },
    {
      "inputs": [
        {
          "internalType": "string",
          "name": "url",
          "type": "string"
        },
        {
          "internalType": "string",
          "name": "dmcaCID",
          "type": "string"
        }
      ],
      "name": "fileDMCA",
      "outputs": [],
      "stateMutability": "nonpayable",
      "type": "function"
    },
    {
      "inputs": [],
      "name": "getLinkCount",
      "outputs": [
        {
          "internalType": "uint256",
          "name": "",
          "type": "uint256"
        }
      ],
      "stateMutability": "view",
      "type": "function"
    },
    {
      "inputs": [
        {
          "internalType": "string",
          "name": "",
          "type": "string"
        }
      ],
      "name": "linkRecords",
      "outputs": [
        {
          "internalType": "string",
          "name": "url",
          "type": "string"
        },
        {
          "internalType": "string",
          "name": "licenseCID",
          "type": "string"
        },
        {
          "internalType": "string",
          "name": "dmcaCID",
          "type": "string"
        },
        {
          "internalType": "enum LinkRegistry.Status",
          "name": "status",
          "type": "uint8"
        },
        {
          "internalType": "uint256",
          "name": "timestamp",
          "type": "uint256"
        },
        {
          "internalType": "bool",
          "name": "exists",
          "type": "bool"
        }
      ],
      "stateMutability": "view",
      "type": "function"
    },
    {
      "inputs": [],
      "name": "owner",
      "outputs": [
        {
          "internalType": "address",
          "name": "",
          "type": "address"
        }
      ],
      "stateMutability": "view",
      "type": "function"
    }
  ],
  "bytecode": "0x608060405234801561001057600080fd5b50600280546001600160a01b03191633179055610ed3806100326000396000f3fe608060405234801561001057600080fd5b50600436106100725760003560e01c80638e7650c3116100505780638e7650c3146100e7578063ae268dd6146100fa578063ef51b79d1461011a57600080fd5b8063062b91da146100775780630fec9efa146100a55780638da5cb5b146100ba575b600080fd5b61008a61008536600461082e565b61012a565b60405161009c96959493929190610922565b60405180910390f35b6100b86100b33660046109e1565b610308565b005b6002546100da9073ffffffffffffffffffffffffffffffffffffffff1681565b60405161009c9190610a81565b6100b86100f53660046109e1565b610556565b61010d610108366004610a96565b61067f565b60405161009c9190610ab7565b60015460405161009c9190610acf565b805160208183018101805160008252928201919093012091528054819061015090610af3565b80601f016020809104026020016040519081016040528092919081815260200182805461017c90610af3565b80156101c95780601f1061019e576101008083540402835291602001916101c9565b820191906000526020600020905b8154815290600101906020018083116101ac57829003601f168201915b5050505050908060010180546101de90610af3565b80601f016020809104026020016040519081016040528092919081815260200182805461020a90610af3565b80156102575780601f1061022c57610100808354040283529160200191610257565b820191906000526020600020905b81548152906001019060200180831161023a57829003601f168201915b50505050509080600201805461026c90610af3565b80601f016020809104026020016040519081016040528092919081815260200182805461029890610af3565b80156102e55780601f106102ba576101008083540402835291602001916102e5565b820191906000526020600020905b8154815290600101906020018083116102c857829003601f168201915b5050505060038301546004840154600590940154929360ff918216939092501686565b60025473ffffffffffffffffffffffffffffffffffffffff1633146103485760405162461bcd60e51b815260040161033f90610b56565b60405180910390fd5b6000848460405161035a929190610b79565b9081526040519081900360200190206005015460ff161561038d5760405162461bcd60e51b815260040161033f90610bba565b6040518060c0016040528085858080601f016020809104026020016040519081016040528093929190818152602001838380828437600092019190915250505090825250604080516020601f860181900481028201810190925284815291810191908590859081908401838280828437600092018290525093855250506040805160208181018352848252850152909201915081524260208201526001604091820152516000906104419087908790610b79565b9081526040519081900360200190208151819061045e9082610c6e565b50602082015160018201906104739082610c6e565b50604082015160028201906104889082610c6e565b50606082015160038201805460ff1916600183818111156104ab576104ab6108c1565b02179055506080820151600482015560a0909101516005909101805460ff19169115159190911790556001805480820182556000919091527fb10e2d527612073b26eecdfd717e6a320cf44b4afac2b0732d9fcbe2b7fa0cf601610510848683610d32565b507fac283364d54cbbc8b7b6991c9d00326ede0f94cc8d7b5ac4181e0e7908e09abb8484848442604051610548959493929190610e19565b60405180910390a150505050565b60025473ffffffffffffffffffffffffffffffffffffffff16331461058d5760405162461bcd60e51b815260040161033f90610b56565b6000848460405161059f929190610b79565b9081526040519081900360200190206005015460ff166105d15760405162461bcd60e51b815260040161033f90610e8d565b8181600086866040516105e5929190610b79565b90815260200160405180910390206002019182610603929190610d32565b50600160008585604051610618929190610b79565b908152604051908190036020019020600301805460ff191660018381811115610643576106436108c1565b02179055507f20002b1b7bcaf8e75c7598b5a64b2b8f86e094c4c21d58a2dc3a191bacbba0798484848442604051610548959493929190610e19565b6001818154811061068f57600080fd5b9060005260206000200160009150905080546106aa90610af3565b80601f01602080910402602001604051908101604052809291908181526020018280546106d690610af3565b80156107235780601f106106f857610100808354040283529160200191610723565b820191906000526020600020905b81548152906001019060200180831161070657829003601f168201915b505050505081565b634e487b7160e01b600052604160045260246000fd5b601f19601f830116810181811067ffffffffffffffff821117156107675761076761072b565b6040525050565b600061077960405190565b90506107858282610741565b919050565b600067ffffffffffffffff8211156107a4576107a461072b565b601f19601f83011660200192915050565b82818337506000910152565b60006107d46107cf8461078a565b61076e565b9050828152602081018484840111156107ef576107ef600080fd5b6107fa8482856107b5565b509392505050565b600082601f83011261081657610816600080fd5b81356108268482602086016107c1565b949350505050565b60006020828403121561084357610843600080fd5b813567ffffffffffffffff81111561085d5761085d600080fd5b61082684828501610802565b60005b8381101561088457818101518382015260200161086c565b50506000910152565b6000610897825190565b8084526020840193506108ae818560208601610869565b601f19601f8201165b9093019392505050565b634e487b7160e01b600052602160045260246000fd5b600281106108e7576108e76108c1565b50565b80610785816108d7565b60006108ff826108ea565b92915050565b61090e816108f4565b82525050565b8061090e565b80151561090e565b60c08082528101610933818961088d565b90508181036020830152610947818861088d565b9050818103604083015261095b818761088d565b905061096a6060830186610905565b6109776080830185610914565b61098460a083018461091a565b979650505050505050565b60008083601f8401126109a4576109a4600080fd5b50813567ffffffffffffffff8111156109bf576109bf600080fd5b6020830191508360018202830111156109da576109da600080fd5b9250929050565b600080600080604085870312156109fa576109fa600080fd5b843567ffffffffffffffff811115610a1457610a14600080fd5b610a208782880161098f565b9450945050602085013567ffffffffffffffff811115610a4257610a42600080fd5b610a4e8782880161098f565b95989497509550505050565b600073ffffffffffffffffffffffffffffffffffffffff82166108ff565b61090e81610a5a565b602081016108ff8284610a78565b80356108ff565b600060208284031215610aab57610aab600080fd5b60006108268484610a8f565b60208082528101610ac8818461088d565b9392505050565b602081016108ff8284610914565b634e487b7160e01b600052602260045260246000fd5b600281046001821680610b0757607f821691505b602082108103610b1957610b19610add565b50919050565b600e81526000602082017f4e6f7420617574686f72697a6564000000000000000000000000000000000000815291505b5060200190565b602080825281016108ff81610b1f565b6000610b738385846107b5565b50500190565b6000610826828486610b66565b601381526000602082017f4c696e6b20616c7265616479206578697374730000000000000000000000000081529150610b4f565b602080825281016108ff81610b86565b60006108ff610bd68381565b90565b610be283610bca565b815460001960089490940293841b1916921b91909117905550565b6000610c0a818484610bd9565b505050565b81811015610c2a57610c22600082610bfd565b600101610c0f565b5050565b601f821115610c0a576000818152602090206020601f85010481016020851015610c555750805b610c676020601f860104830182610c0f565b5050505050565b815167ffffffffffffffff811115610c8857610c8861072b565b610c928254610af3565b610c9d828285610c2e565b6020601f831160018114610cd15760008415610cb95750858201515b600019600886021c1981166002860217865550610d2a565b600085815260208120601f198616915b82811015610d015788850151825560209485019460019092019101610ce1565b86831015610d1d5784890151600019601f89166008021c191682555b6001600288020188555050505b505050505050565b8267ffffffffffffffff811115610d4b57610d4b61072b565b610d558254610af3565b610d60828285610c2e565b6000601f831160018114610d945760008415610d7c5750858201355b600019600886021c1981166002860217865550610ded565b600085815260208120601f198616915b82811015610dc45788850135825560209485019460019092019101610da4565b86831015610de057600019601f88166008021c19858a01351682555b6001600288020188555050505b50505050505050565b8183526000602084019350610e0c8385846107b5565b601f19601f8401166108b7565b60608082528101610e2b818789610df6565b90508181036020830152610e40818587610df6565b9050610e4f6040830184610914565b9695505050505050565b601381526000602082017f4c696e6b20646f6573206e6f742065786973740000000000000000000000000081529150610b4f565b602080825281016108ff81610e5956fea26469706673582212207aa1969bb5fd312518b55c892200790366b5da07df94160bed1977b4d5335f5764736f6c63430008170033",
  "linkReferences": {},
  "deployedLinkReferences": {}
}