{
  "_format": "hh-sol-artifact-1",
  "contractName": "DealClient",
  "sourceName": "contracts/filefind/DealClient.sol",
  "abi": [
    {
      "anonymous": false,
      "inputs": [
        {
          "indexed": true,
          "internalType": "bytes32",
          "name": "proposalId",
          "type": "bytes32"
        },
        {
          "indexed": false,
          "internalType": "bytes",
          "name": "piece_cid",
          "type": "bytes"
        }
      ],
      "name": "DealProposed",
      "type": "event"
    },
    {
      "inputs": [
        {
          "internalType": "uint256",
          "name": "",
          "type": "uint256"
        }
      ],
      "name": "dealRequests",
      "outputs": [
        {
          "internalType": "bytes",
          "name": "piece_cid",
          "type": "bytes"
        },
        {
          "internalType": "uint64",
          "name": "piece_size",
          "type": "uint64"
        },
        {
          "internalType": "bool",
          "name": "verified_deal",
          "type": "bool"
        },
        {
          "internalType": "string",
          "name": "label",
          "type": "string"
        },
        {
          "internalType": "int64",
          "name": "start_epoch",
          "type": "int64"
        },
        {
          "internalType": "int64",
          "name": "end_epoch",
          "type": "int64"
        },
        {
          "internalType": "uint256",
          "name": "storage_price_per_epoch",
          "type": "uint256"
        },
        {
          "internalType": "uint256",
          "name": "provider_collateral",
          "type": "uint256"
        },
        {
          "internalType": "uint256",
          "name": "client_collateral",
          "type": "uint256"
        }
      ],
      "stateMutability": "view",
      "type": "function"
    },
    {
      "inputs": [
        {
          "internalType": "bytes32",
          "name": "proposalId",
          "type": "bytes32"
        }
      ],
      "name": "getDealRequest",
      "outputs": [
        {
          "components": [
            {
              "internalType": "bytes",
              "name": "piece_cid",
              "type": "bytes"
            },
            {
              "internalType": "uint64",
              "name": "piece_size",
              "type": "uint64"
            },
            {
              "internalType": "bool",
              "name": "verified_deal",
              "type": "bool"
            },
            {
              "internalType": "string",
              "name": "label",
              "type": "string"
            },
            {
              "internalType": "int64",
              "name": "start_epoch",
              "type": "int64"
            },
            {
              "internalType": "int64",
              "name": "end_epoch",
              "type": "int64"
            },
            {
              "internalType": "uint256",
              "name": "storage_price_per_epoch",
              "type": "uint256"
            },
            {
              "internalType": "uint256",
              "name": "provider_collateral",
              "type": "uint256"
            },
            {
              "internalType": "uint256",
              "name": "client_collateral",
              "type": "uint256"
            }
          ],
          "internalType": "struct DealClient.DealRequest",
          "name": "",
          "type": "tuple"
        }
      ],
      "stateMutability": "view",
      "type": "function"
    },
    {
      "inputs": [
        {
          "components": [
            {
              "internalType": "bytes",
              "name": "piece_cid",
              "type": "bytes"
            },
            {
              "internalType": "uint64",
              "name": "piece_size",
              "type": "uint64"
            },
            {
              "internalType": "bool",
              "name": "verified_deal",
              "type": "bool"
            },
            {
              "internalType": "string",
              "name": "label",
              "type": "string"
            },
            {
              "internalType": "int64",
              "name": "start_epoch",
              "type": "int64"
            },
            {
              "internalType": "int64",
              "name": "end_epoch",
              "type": "int64"
            },
            {
              "internalType": "uint256",
              "name": "storage_price_per_epoch",
              "type": "uint256"
            },
            {
              "internalType": "uint256",
              "name": "provider_collateral",
              "type": "uint256"
            },
            {
              "internalType": "uint256",
              "name": "client_collateral",
              "type": "uint256"
            }
          ],
          "internalType": "struct DealClient.DealRequest",
          "name": "deal",
          "type": "tuple"
        }
      ],
      "name": "makeDealProposal",
      "outputs": [
        {
          "internalType": "bytes32",
          "name": "",
          "type": "bytes32"
        }
      ],
      "stateMutability": "nonpayable",
      "type": "function"
    },
    {
      "inputs": [
        {
          "internalType": "bytes32",
          "name": "",
          "type": "bytes32"
        }
      ],
      "name": "proposalIndex",
      "outputs": [
        {
          "internalType": "uint256",
          "name": "",
          "type": "uint256"
        }
      ],
      "stateMutability": "view",
      "type": "function"
    }
  ],
  "bytecode": "0x608060405234801561001057600080fd5b50610d9b806100206000396000f3fe608060405234801561001057600080fd5b506004361061004c5760003560e01c8063342c89b414610051578063bad79de91461007a578063e0a9a725146100a2578063ed5ef4d5146100c2575b600080fd5b61006461005f36600461057d565b6100e2565b60405161007191906106ec565b60405180910390f35b61008d61008836600461057d565b6102fe565b60405161007199989796959493929190610704565b6100b56100b03660046107b2565b610493565b60405161007191906107ed565b6100b56100d036600461057d565b60016020526000908152604090205481565b60408051610120810182526060808252600060208301819052928201839052808201526080810182905260a0810182905260c0810182905260e0810182905261010081019190915260008281526001602052604081205481548110610149576101496107fb565b90600052602060002090600702016040518061012001604052908160008201805461017390610827565b80601f016020809104026020016040519081016040528092919081815260200182805461019f90610827565b80156101ec5780601f106101c1576101008083540402835291602001916101ec565b820191906000526020600020905b8154815290600101906020018083116101cf57829003601f168201915b5050509183525050600182015467ffffffffffffffff8116602083015268010000000000000000900460ff161515604082015260028201805460609092019161023490610827565b80601f016020809104026020016040519081016040528092919081815260200182805461026090610827565b80156102ad5780601f10610282576101008083540402835291602001916102ad565b820191906000526020600020905b81548152906001019060200180831161029057829003601f168201915b50505091835250506003820154600781810b602084015268010000000000000000909104900b6040820152600482015460608201526005820154608082015260069091015460a09091015292915050565b6000818154811061030e57600080fd5b906000526020600020906007020160009150905080600001805461033190610827565b80601f016020809104026020016040519081016040528092919081815260200182805461035d90610827565b80156103aa5780601f1061037f576101008083540402835291602001916103aa565b820191906000526020600020905b81548152906001019060200180831161038d57829003601f168201915b505050506001830154600284018054939467ffffffffffffffff8316946801000000000000000090930460ff169350916103e390610827565b80601f016020809104026020016040519081016040528092919081815260200182805461040f90610827565b801561045c5780601f106104315761010080835404028352916020019161045c565b820191906000526020600020905b81548152906001019060200180831161043f57829003601f168201915b505050506003830154600484015460058501546006909501549394600783810b9568010000000000000000909404900b9350909189565b6000805460018101825581805282600782027f290decd9548b62a8d60345a988386fc84ba6bc95484008f6362f93160ef3e563016104d18282610c9d565b505060004233836040516020016104ea93929190610ced565b60408051601f1981840301815291815281516020928301206000818152600190935291208390559050807f04b9a38ab2c5e2fa5f29d5f5c4930a7616686e2ca2051d9ceb95952e3a4c288661053f868061084d565b60405161054d929190610d53565b60405180910390a29392505050565b805b811461056957600080fd5b50565b80356105778161055c565b92915050565b60006020828403121561059257610592600080fd5b600061059e848461056c565b949350505050565b60005b838110156105c15781810151838201526020016105a9565b50506000910152565b60006105d4825190565b8084526020840193506105eb8185602086016105a6565b601f19601f8201165b9093019392505050565b67ffffffffffffffff81165b82525050565b80151561060a565b61060a8160070b90565b8061060a565b80516101208084526000919084019061064182826105ca565b915050602083015161065660208601826105fe565b5060408301516106696040860182610610565b506060830151848203606086015261068182826105ca565b91505060808301516106966080860182610618565b5060a08301516106a960a0860182610618565b5060c08301516106bc60c0860182610622565b5060e08301516106cf60e0860182610622565b506101008301516106e4610100860182610622565b509392505050565b602080825281016106fd8184610628565b9392505050565b6101208082528101610716818c6105ca565b9050610725602083018b6105fe565b610732604083018a610610565b818103606083015261074481896105ca565b90506107536080830188610618565b61076060a0830187610618565b61076d60c0830186610622565b61077a60e0830185610622565b610788610100830184610622565b9a9950505050505050505050565b600061012082840312156107ac576107ac600080fd5b50919050565b6000602082840312156107c7576107c7600080fd5b813567ffffffffffffffff8111156107e1576107e1600080fd5b61059e84828501610796565b602081016105778284610622565b634e487b7160e01b600052603260045260246000fd5b634e487b7160e01b600052602260045260246000fd5b60028104600182168061083b57607f821691505b6020821081036107ac576107ac610811565b6000808335601e193685900301811261086857610868600080fd5b80840192508235915067ffffffffffffffff82111561088957610889600080fd5b6020830192506001820236038313156108a4576108a4600080fd5b509250929050565b634e487b7160e01b600052604160045260246000fd5b60006105776108ce8381565b90565b6108da836108c2565b815460001960089490940293841b1916921b91909117905550565b60006109028184846108d1565b505050565b818110156109225761091a6000826108f5565b600101610907565b5050565b601f821115610902576000818152602090206020601f8501048101602085101561094d5750805b61095f6020601f860104830182610907565b5050505050565b8267ffffffffffffffff81111561097f5761097f6108ac565b6109898254610827565b610994828285610926565b6000601f8311600181146109c857600084156109b05750858201355b600019600886021c1981166002860217865550610a21565b600085815260208120601f198616915b828110156109f857888501358255602094850194600190920191016109d8565b86831015610a1457600019601f88166008021c19858a01351682555b6001600288020188555050505b50505050505050565b610902838383610966565b67ffffffffffffffff811661055e565b6000813561057781610a35565b600067ffffffffffffffff835b81169019929092169190911792915050565b600067ffffffffffffffff8216610577565b610a8c82610a71565b610a97818354610a52565b8255505050565b80151561055e565b6000813561057781610a9e565b600068ff0000000000000000610a5f8460401b90565b6000811515610577565b610adc82610ac9565b610a97818354610ab3565b61055e8160070b90565b6000813561057781610ae7565b6000610577610b106108ce8460070b90565b60070b90565b610a8c82610afe565b60006fffffffffffffffff0000000000000000610a5f8460401b90565b610b4582610afe565b610a97818354610b1f565b600081356105778161055c565b600060001983610a5f565b610b71826108c2565b610a97818354610b5d565b8082610b88818061084d565b610b93818386610a2a565b50505050600181016020830180610ba981610a45565b9050610bb58184610a83565b505050600181016040830180610bca81610aa6565b9050610bd68184610ad3565b5050506002810160608301610beb818561084d565b610bf6818386610a2a565b50505050600381016080830180610c0c81610af1565b9050610c188184610b16565b5050506003810160a0830180610c2d81610af1565b9050610c398184610b3c565b5050506004810160c0830180610c4e81610b50565b9050610c5a8184610b68565b5050506005810160e0830180610c6f81610b50565b9050610c7b8184610b68565b50505060068101610100830180610c9181610b50565b905061095f8184610b68565b6109228282610b7c565b600073ffffffffffffffffffffffffffffffffffffffff8216610577565b60006105778260601b90565b600061057782610cc5565b61060a610ce882610ca7565b610cd1565b6000610cf98286610622565b602082019150610d098285610cdc565b601482019150610d198284610622565b506020019392505050565b82818337506000910152565b8183526000602084019350610d46838584610d24565b601f19601f8401166105f4565b6020808252810161059e818486610d3056fea264697066735822122064745da1b010afe281fc5541dbbab7b81fa7776e8fcadbbc1604e0dfd0c4592d64736f6c63430008170033",
  "linkReferences": {},
  "deployedLinkReferences": {}
}